{
  "contractName": "HashStore",
  "abi": [
    {
      "anonymous": false,
      "inputs": [
        {
          "indexed": false,
          "name": "",
          "type": "string"
        }
      ],
      "name": "NewHashEntry",
      "type": "event",
      "signature": "0xa17626dd2b9ef50324ff5eccf13544f25ef544a75e17ca9d7a2d03df9d384e60"
    },
    {
      "constant": false,
      "inputs": [
        {
          "name": "hashValue",
          "type": "string"
        }
      ],
      "name": "addHashEntry",
      "outputs": [],
      "payable": false,
      "stateMutability": "nonpayable",
      "type": "function",
      "signature": "0x4b159e45"
    }
  ],
  "bytecode": "0x608060405234801561001057600080fd5b5061017a806100206000396000f300608060405260043610610041576000357c0100000000000000000000000000000000000000000000000000000000900463ffffffff1680634b159e4514610046575b600080fd5b34801561005257600080fd5b506100ad600480360381019080803590602001908201803590602001908080601f01602080910402602001604051908101604052809392919081815260200183838082843782019150505050505091929192905050506100af565b005b7fa17626dd2b9ef50324ff5eccf13544f25ef544a75e17ca9d7a2d03df9d384e60816040518080602001828103825283818151815260200191508051906020019080838360005b838110156101115780820151818401526020810190506100f6565b50505050905090810190601f16801561013e5780820380516001836020036101000a031916815260200191505b509250505060405180910390a1505600a165627a7a72305820e2619506026a5db797828dd0d0d93dcff636f2a3339e9c458325b810d19336ca0029",
  "source": "pragma solidity ^0.4.24;\ncontract HashStore {\n\n    event NewHashEntry(string);\n\n    function addHashEntry(string hashValue) public {\n        emit NewHashEntry(hashValue);\n    }\n}\n",
  "sourcePath": "/Users/oliver/dev/github/codetalks2018/truffle/contracts/HashStore.sol",
  "compiler": {
    "name": "solc",
    "version": "0.4.24+commit.e67f0147.Emscripten.clang"
  },
  "schemaVersion": "3.0.0-beta.0",
  "updatedAt": "2018-09-19T16:09:34.500Z"
}