{
  "contractName": "HashStore",
  "abi": [
    {
      "constant": true,
      "inputs": [],
      "name": "s",
      "outputs": [
        {
          "name": "",
          "type": "string"
        }
      ],
      "payable": false,
      "stateMutability": "view",
      "type": "function"
    },
    {
      "constant": false,
      "inputs": [
        {
          "name": "hash",
          "type": "string"
        }
      ],
      "name": "storeHash",
      "outputs": [],
      "payable": false,
      "stateMutability": "nonpayable",
      "type": "function"
    },
    {
      "constant": true,
      "inputs": [
        {
          "name": "hash",
          "type": "string"
        }
      ],
      "name": "getEntryFromHash",
      "outputs": [
        {
          "components": [
            {
              "name": "source",
              "type": "address"
            },
            {
              "name": "blockNumber",
              "type": "uint256"
            },
            {
              "name": "blockTimestamp",
              "type": "uint256"
            }
          ],
          "name": "",
          "type": "tuple"
        }
      ],
      "payable": false,
      "stateMutability": "view",
      "type": "function"
    }
  ],
  "bytecode": "0x60806040526040805190810160405280600181526020017f73000000000000000000000000000000000000000000000000000000000000008152506000908051906020019061004f929190610062565b5034801561005c57600080fd5b50610107565b828054600181600116156101000203166002900490600052602060002090601f016020900481019282601f106100a357805160ff19168380011785556100d1565b828001600101855582156100d1579182015b828111156100d05782518255916020019190600101906100b5565b5b5090506100de91906100e2565b5090565b61010491905b808211156101005760008160009055506001016100e8565b5090565b90565b6106f5806101166000396000f300608060405260043610610057576000357c0100000000000000000000000000000000000000000000000000000000900463ffffffff16806371dc61cb1461005c57806386b714e2146100855780639d5e7d93146100b0575b600080fd5b34801561006857600080fd5b50610083600480360361007e91908101906104c6565b6100ed565b005b34801561009157600080fd5b5061009a6102aa565b6040516100a7919061059d565b60405180910390f35b3480156100bc57600080fd5b506100d760048036036100d291908101906104c6565b610348565b6040516100e491906105bf565b60405180910390f35b6100f5610438565b60006001836040518082805190602001908083835b60208310151561012f578051825260208201915060208101905060208303925061010a565b6001836020036101000a038019825116818451168082178552505050505050905001915050908152602001604051809103902060000160009054906101000a900473ffffffffffffffffffffffffffffffffffffffff1673ffffffffffffffffffffffffffffffffffffffff161415156101a857600080fd5b6060604051908101604052803373ffffffffffffffffffffffffffffffffffffffff168152602001438152602001428152509050806001836040518082805190602001908083835b60208310151561021557805182526020820191506020810190506020830392506101f0565b6001836020036101000a038019825116818451168082178552505050505050905001915050908152602001604051809103902060008201518160000160006101000a81548173ffffffffffffffffffffffffffffffffffffffff021916908373ffffffffffffffffffffffffffffffffffffffff16021790555060208201518160010155604082015181600201559050505050565b60008054600181600116156101000203166002900480601f0160208091040260200160405190810160405280929190818152602001828054600181600116156101000203166002900480156103405780601f1061031557610100808354040283529160200191610340565b820191906000526020600020905b81548152906001019060200180831161032357829003601f168201915b505050505081565b610350610438565b6001826040518082805190602001908083835b6020831015156103885780518252602082019150602081019050602083039250610363565b6001836020036101000a0380198251168184511680821785525050505050509050019150509081526020016040518091039020606060405190810160405290816000820160009054906101000a900473ffffffffffffffffffffffffffffffffffffffff1673ffffffffffffffffffffffffffffffffffffffff1673ffffffffffffffffffffffffffffffffffffffff168152602001600182015481526020016002820154815250509050919050565b606060405190810160405280600073ffffffffffffffffffffffffffffffffffffffff16815260200160008152602001600081525090565b600082601f830112151561048357600080fd5b813561049661049182610607565b6105da565b915080825260208301602083018583830111156104b257600080fd5b6104bd838284610668565b50505092915050565b6000602082840312156104d857600080fd5b600082013567ffffffffffffffff8111156104f257600080fd5b6104fe84828501610470565b91505092915050565b6105108161063e565b82525050565b600061052182610633565b808452610535816020860160208601610677565b61053e816106aa565b602085010191505092915050565b6060820160008201516105626000850182610507565b506020820151610575602085018261058e565b506040820151610588604085018261058e565b50505050565b6105978161065e565b82525050565b600060208201905081810360008301526105b78184610516565b905092915050565b60006060820190506105d4600083018461054c565b92915050565b6000604051905081810181811067ffffffffffffffff821117156105fd57600080fd5b8060405250919050565b600067ffffffffffffffff82111561061e57600080fd5b601f19601f8301169050602081019050919050565b600081519050919050565b600073ffffffffffffffffffffffffffffffffffffffff82169050919050565b6000819050919050565b82818337600083830152505050565b60005b8381101561069557808201518184015260208101905061067a565b838111156106a4576000848401525b50505050565b6000601f19601f83011690509190505600a265627a7a72305820b88f681bb1c607ff326e3d2fc034ccc2bbb1159ef43b9c74b89c02784f67995a6c6578706572696d656e74616cf50037",
  "source": "pragma solidity ^0.4.24;\npragma experimental ABIEncoderV2;\n\ncontract HashStore {\n\n    struct Entry {\n        address source;\n        uint blockNumber;\n        uint blockTimestamp;\n    }\n\n    string public s = \"s\";\n    \n    mapping (string => Entry) entries;\n\n    function storeHash(string hash) public {\n        if(entries[hash].source != 0x0) throw;\n        Entry memory entry = Entry(msg.sender, block.number, block.timestamp);\n        entries[hash] = entry;\n    }\n\n    function getEntryFromHash(string hash) public view returns(Entry) {\n        return entries[hash];\n    }\n}\n",
  "sourcePath": "/Users/oliver/dev/github/codetalks2018/truffle/contracts/HashStore.sol",
  "compiler": {
    "name": "solc",
    "version": "0.4.24+commit.e67f0147.Emscripten.clang"
  },
  "schemaVersion": "2.0.1",
  "updatedAt": "2018-09-22T05:34:41.290Z"
}