{
  "contractName": "HashStore",
  "abi": [
    {
      "constant": false,
      "inputs": [
        {
          "name": "hash",
          "type": "string"
        }
      ],
      "name": "storeHash",
      "outputs": [],
      "payable": false,
      "stateMutability": "nonpayable",
      "type": "function"
    },
    {
      "constant": true,
      "inputs": [
        {
          "name": "hash",
          "type": "string"
        }
      ],
      "name": "getSourceFromHash",
      "outputs": [
        {
          "name": "",
          "type": "address"
        }
      ],
      "payable": false,
      "stateMutability": "view",
      "type": "function"
    },
    {
      "constant": true,
      "inputs": [
        {
          "name": "hash",
          "type": "string"
        }
      ],
      "name": "getBlockNumberFromHash",
      "outputs": [
        {
          "name": "",
          "type": "uint256"
        }
      ],
      "payable": false,
      "stateMutability": "view",
      "type": "function"
    },
    {
      "constant": true,
      "inputs": [
        {
          "name": "hash",
          "type": "string"
        }
      ],
      "name": "getBlockTimestampFromHash",
      "outputs": [
        {
          "name": "",
          "type": "uint256"
        }
      ],
      "payable": false,
      "stateMutability": "view",
      "type": "function"
    }
  ],
  "bytecode": "0x608060405234801561001057600080fd5b50610618806100206000396000f300608060405260043610610062576000357c0100000000000000000000000000000000000000000000000000000000900463ffffffff16806335e2bf871461006757806371dc61cb146100e457806390482c211461014d5780639b12c634146101ca575b600080fd5b34801561007357600080fd5b506100ce600480360381019080803590602001908201803590602001908080601f0160208091040260200160405190810160405280939291908181526020018383808284378201915050505050509192919290505050610273565b6040518082815260200191505060405180910390f35b3480156100f057600080fd5b5061014b600480360381019080803590602001908201803590602001908080601f01602080910402602001604051908101604052809392919081815260200183838082843782019150505050505091929192905050506102ea565b005b34801561015957600080fd5b506101b4600480360381019080803590602001908201803590602001908080601f01602080910402602001604051908101604052809392919081815260200183838082843782019150505050505091929192905050506104a6565b6040518082815260200191505060405180910390f35b3480156101d657600080fd5b50610231600480360381019080803590602001908201803590602001908080601f016020809104026020016040519081016040528093929190818152602001838380828437820191505050505050919291929050505061051d565b604051808273ffffffffffffffffffffffffffffffffffffffff1673ffffffffffffffffffffffffffffffffffffffff16815260200191505060405180910390f35b600080826040518082805190602001908083835b6020831015156102ac5780518252602082019150602081019050602083039250610287565b6001836020036101000a0380198251168184511680821785525050505050509050019150509081526020016040518091039020600201549050919050565b6102f26105b4565b600080836040518082805190602001908083835b60208310151561032b5780518252602082019150602081019050602083039250610306565b6001836020036101000a038019825116818451168082178552505050505050905001915050908152602001604051809103902060000160009054906101000a900473ffffffffffffffffffffffffffffffffffffffff1673ffffffffffffffffffffffffffffffffffffffff161415156103a457600080fd5b6060604051908101604052803373ffffffffffffffffffffffffffffffffffffffff168152602001438152602001428152509050806000836040518082805190602001908083835b60208310151561041157805182526020820191506020810190506020830392506103ec565b6001836020036101000a038019825116818451168082178552505050505050905001915050908152602001604051809103902060008201518160000160006101000a81548173ffffffffffffffffffffffffffffffffffffffff021916908373ffffffffffffffffffffffffffffffffffffffff16021790555060208201518160010155604082015181600201559050505050565b600080826040518082805190602001908083835b6020831015156104df57805182526020820191506020810190506020830392506104ba565b6001836020036101000a0380198251168184511680821785525050505050509050019150509081526020016040518091039020600101549050919050565b600080826040518082805190602001908083835b6020831015156105565780518252602082019150602081019050602083039250610531565b6001836020036101000a038019825116818451168082178552505050505050905001915050908152602001604051809103902060000160009054906101000a900473ffffffffffffffffffffffffffffffffffffffff169050919050565b606060405190810160405280600073ffffffffffffffffffffffffffffffffffffffff168152602001600081526020016000815250905600a165627a7a72305820695b5a67147f31660d5ed45063eb94202d99c0858606a9b642dba44155d701dd0029",
  "source": "pragma solidity ^0.4.24;\n\ncontract HashStore {\n\n    struct Entry {\n        address source;\n        uint blockNumber;\n        uint blockTimestamp;\n    }\n\n    mapping (string => Entry) entries;\n\n    function storeHash(string hash) public {\n        if(entries[hash].source != 0x0) revert();\n        Entry memory entry = Entry(msg.sender, block.number, block.timestamp);\n        entries[hash] = entry;\n    }\n\n    function getSourceFromHash(string hash) public view returns(address) {\n        return entries[hash].source;\n    }\n\n    function getBlockNumberFromHash(string hash) public view returns(uint) {\n        return entries[hash].blockNumber;\n    }\n\n    function getBlockTimestampFromHash(string hash) public view returns(uint) {\n        return entries[hash].blockTimestamp;\n    }\n}\n",
  "sourcePath": "/Users/oliver/dev/github/codetalks2018/truffle/contracts/HashStore.sol",
  "compiler": {
    "name": "solc",
    "version": "0.4.24+commit.e67f0147.Emscripten.clang"
  },
  "schemaVersion": "2.0.1",
  "updatedAt": "2018-09-24T14:55:15.429Z"
}