{
  "contractName": "TextStore",
  "abi": [
    {
      "anonymous": false,
      "inputs": [
        {
          "indexed": false,
          "name": "",
          "type": "string"
        }
      ],
      "name": "NewTextEntry",
      "type": "event"
    },
    {
      "constant": false,
      "inputs": [
        {
          "name": "text",
          "type": "string"
        }
      ],
      "name": "addTextEntry",
      "outputs": [],
      "payable": false,
      "stateMutability": "nonpayable",
      "type": "function"
    }
  ],
  "bytecode": "0x608060405234801561001057600080fd5b5061017a806100206000396000f300608060405260043610610041576000357c0100000000000000000000000000000000000000000000000000000000900463ffffffff1680639a714e7114610046575b600080fd5b34801561005257600080fd5b506100ad600480360381019080803590602001908201803590602001908080601f01602080910402602001604051908101604052809392919081815260200183838082843782019150505050505091929192905050506100af565b005b7f1662219b72f819439d649a5a01874cd1744f4a06261b88c42dda63fadc00e924816040518080602001828103825283818151815260200191508051906020019080838360005b838110156101115780820151818401526020810190506100f6565b50505050905090810190601f16801561013e5780820380516001836020036101000a031916815260200191505b509250505060405180910390a1505600a165627a7a7230582071726f24827149842bb6a1ec27f137fb172351c35caa8692c235068a04e25e1a0029",
  "source": "pragma solidity ^0.4.24;\ncontract TextStore {\n\n    event NewTextEntry(string);\n\n    function addTextEntry(string text) public {\n        emit NewTextEntry(text);\n    }\n}\n",
  "sourcePath": "/Users/oliver/dev/github/codetalks2018/truffle/contracts/TextStore.sol",
  "compiler": {
    "name": "solc",
    "version": "0.4.24+commit.e67f0147.Emscripten.clang"
  },
  "schemaVersion": "2.0.1",
  "updatedAt": "2018-09-20T16:30:48.741Z"
}