{
  "contractName": "HashStore",
  "abi": [
    {
      "constant": false,
      "inputs": [
        {
          "name": "hash",
          "type": "string"
        }
      ],
      "name": "storeHash",
      "outputs": [],
      "payable": false,
      "stateMutability": "nonpayable",
      "type": "function"
    },
    {
      "constant": true,
      "inputs": [
        {
          "name": "hash",
          "type": "string"
        }
      ],
      "name": "getEntryFromHash",
      "outputs": [
        {
          "components": [
            {
              "name": "source",
              "type": "address"
            },
            {
              "name": "blockNumber",
              "type": "uint256"
            },
            {
              "name": "blockTimestamp",
              "type": "uint256"
            }
          ],
          "name": "",
          "type": "tuple"
        }
      ],
      "payable": false,
      "stateMutability": "view",
      "type": "function"
    }
  ],
  "bytecode": "0x608060405234801561001057600080fd5b50610579806100206000396000f30060806040526004361061004c576000357c0100000000000000000000000000000000000000000000000000000000900463ffffffff16806371dc61cb146100515780639d5e7d931461007a575b600080fd5b34801561005d57600080fd5b50610078600480360361007391908101906103f1565b6100b7565b005b34801561008657600080fd5b506100a1600480360361009c91908101906103f1565b610273565b6040516100ae9190610492565b60405180910390f35b6100bf610363565b600080836040518082805190602001908083835b6020831015156100f857805182526020820191506020810190506020830392506100d3565b6001836020036101000a038019825116818451168082178552505050505050905001915050908152602001604051809103902060000160009054906101000a900473ffffffffffffffffffffffffffffffffffffffff1673ffffffffffffffffffffffffffffffffffffffff1614151561017157600080fd5b6060604051908101604052803373ffffffffffffffffffffffffffffffffffffffff168152602001438152602001428152509050806000836040518082805190602001908083835b6020831015156101de57805182526020820191506020810190506020830392506101b9565b6001836020036101000a038019825116818451168082178552505050505050905001915050908152602001604051809103902060008201518160000160006101000a81548173ffffffffffffffffffffffffffffffffffffffff021916908373ffffffffffffffffffffffffffffffffffffffff16021790555060208201518160010155604082015181600201559050505050565b61027b610363565b6000826040518082805190602001908083835b6020831015156102b3578051825260208201915060208101905060208303925061028e565b6001836020036101000a0380198251168184511680821785525050505050509050019150509081526020016040518091039020606060405190810160405290816000820160009054906101000a900473ffffffffffffffffffffffffffffffffffffffff1673ffffffffffffffffffffffffffffffffffffffff1673ffffffffffffffffffffffffffffffffffffffff168152602001600182015481526020016002820154815250509050919050565b606060405190810160405280600073ffffffffffffffffffffffffffffffffffffffff16815260200160008152602001600081525090565b600082601f83011215156103ae57600080fd5b81356103c16103bc826104da565b6104ad565b915080825260208301602083018583830111156103dd57600080fd5b6103e8838284610530565b50505092915050565b60006020828403121561040357600080fd5b600082013567ffffffffffffffff81111561041d57600080fd5b6104298482850161039b565b91505092915050565b61043b81610506565b82525050565b6060820160008201516104576000850182610432565b50602082015161046a6020850182610483565b50604082015161047d6040850182610483565b50505050565b61048c81610526565b82525050565b60006060820190506104a76000830184610441565b92915050565b6000604051905081810181811067ffffffffffffffff821117156104d057600080fd5b8060405250919050565b600067ffffffffffffffff8211156104f157600080fd5b601f19601f8301169050602081019050919050565b600073ffffffffffffffffffffffffffffffffffffffff82169050919050565b6000819050919050565b828183376000838301525050505600a265627a7a723058209e5130a26e2deeef147e0be4a74a9f358806c86bfcecced434929096c531c1876c6578706572696d656e74616cf50037",
  "source": "pragma solidity ^0.4.24;\npragma experimental ABIEncoderV2;\n\ncontract HashStore {\n\n    struct Entry {\n        address source;\n        uint blockNumber;\n        uint blockTimestamp;\n    }\n\n    mapping (string => Entry) entries;\n\n    function storeHash(string hash) public {\n        if(entries[hash].source != 0x0) revert();\n        Entry memory entry = Entry(msg.sender, block.number, block.timestamp);\n        entries[hash] = entry;\n    }\n\n    function getEntryFromHash(string hash) public view returns(Entry) {\n        return entries[hash];\n    }\n}\n",
  "sourcePath": "/Users/oliver/dev/github/codetalks2018/truffle/contracts/HashStore.sol",
  "compiler": {
    "name": "solc",
    "version": "0.4.24+commit.e67f0147.Emscripten.clang"
  },
  "schemaVersion": "2.0.1",
  "updatedAt": "2018-09-22T07:39:35.941Z"
}