{
  "contractName": "HashStore",
  "abi": [
    {
      "constant": true,
      "inputs": [],
      "name": "s",
      "outputs": [
        {
          "name": "",
          "type": "string"
        }
      ],
      "payable": false,
      "stateMutability": "view",
      "type": "function"
    },
    {
      "constant": false,
      "inputs": [
        {
          "name": "hash",
          "type": "string"
        }
      ],
      "name": "storeHash",
      "outputs": [],
      "payable": false,
      "stateMutability": "nonpayable",
      "type": "function"
    },
    {
      "constant": false,
      "inputs": [
        {
          "name": "_s",
          "type": "string"
        }
      ],
      "name": "storeHash2",
      "outputs": [],
      "payable": false,
      "stateMutability": "nonpayable",
      "type": "function"
    }
  ],
  "bytecode": "0x60806040526040805190810160405280600181526020017f73000000000000000000000000000000000000000000000000000000000000008152506000908051906020019061004f929190610062565b5034801561005c57600080fd5b50610107565b828054600181600116156101000203166002900490600052602060002090601f016020900481019282601f106100a357805160ff19168380011785556100d1565b828001600101855582156100d1579182015b828111156100d05782518255916020019190600101906100b5565b5b5090506100de91906100e2565b5090565b61010491905b808211156101005760008160009055506001016100e8565b5090565b90565b610489806101166000396000f300608060405260043610610057576000357c0100000000000000000000000000000000000000000000000000000000900463ffffffff1680630788743d1461005c57806371dc61cb146100c557806386b714e21461012e575b600080fd5b34801561006857600080fd5b506100c3600480360381019080803590602001908201803590602001908080601f01602080910402602001604051908101604052809392919081815260200183838082843782019150505050505091929192905050506101be565b005b3480156100d157600080fd5b5061012c600480360381019080803590602001908201803590602001908080601f01602080910402602001604051908101604052809392919081815260200183838082843782019150505050505091929192905050506101d8565b005b34801561013a57600080fd5b506101436102e2565b6040518080602001828103825283818151815260200191508051906020019080838360005b83811015610183578082015181840152602081019050610168565b50505050905090810190601f1680156101b05780820380516001836020036101000a031916815260200191505b509250505060405180910390f35b80600090805190602001906101d4929190610380565b5050565b6101e0610400565b6060604051908101604052803373ffffffffffffffffffffffffffffffffffffffff168152602001438152602001428152509050806001836040518082805190602001908083835b60208310151561024d5780518252602082019150602081019050602083039250610228565b6001836020036101000a038019825116818451168082178552505050505050905001915050908152602001604051809103902060008201518160000160006101000a81548173ffffffffffffffffffffffffffffffffffffffff021916908373ffffffffffffffffffffffffffffffffffffffff16021790555060208201518160010155604082015181600201559050505050565b60008054600181600116156101000203166002900480601f0160208091040260200160405190810160405280929190818152602001828054600181600116156101000203166002900480156103785780601f1061034d57610100808354040283529160200191610378565b820191906000526020600020905b81548152906001019060200180831161035b57829003601f168201915b505050505081565b828054600181600116156101000203166002900490600052602060002090601f016020900481019282601f106103c157805160ff19168380011785556103ef565b828001600101855582156103ef579182015b828111156103ee5782518255916020019190600101906103d3565b5b5090506103fc9190610438565b5090565b606060405190810160405280600073ffffffffffffffffffffffffffffffffffffffff16815260200160008152602001600081525090565b61045a91905b8082111561045657600081600090555060010161043e565b5090565b905600a165627a7a7230582098fc63fb22dc28429753cf474a771fdd2c449411a538e105f5d9faa80a2111bc0029",
  "source": "pragma solidity ^0.4.24;\n//pragma experimental ABIEncoderV2;\n\ncontract HashStore {\n\n    struct Entry {\n        address source;\n        uint blockNumber;\n        uint blockTimestamp;\n    }\n\n    string public s = \"s\";\n    \n    mapping (string => Entry) entries;\n\n    function storeHash(string hash) public {\n        //if(entries[hash].source != 0x0) throw;\n        Entry memory entry = Entry(msg.sender, block.number, block.timestamp);\n        entries[hash] = entry;\n    }\n\n    function storeHash2(string _s) public {\n        s = _s;\n    }\n\n//    function getEntriesFromHash(string hash) public view returns(Entry[]) {\n//        return entries[hash];\n//    }\n}\n",
  "sourcePath": "/Users/oliver/dev/github/codetalks2018/truffle/contracts/HashStore.sol",
  "compiler": {
    "name": "solc",
    "version": "0.4.24+commit.e67f0147.Emscripten.clang"
  },
  "schemaVersion": "2.0.1",
  "updatedAt": "2018-09-22T05:24:30.250Z"
}